:020000041000EA
:10100000500500201D100010000000009D10001071
:101010000018040000010000000000801149124A7D
:10102000124B00F018F8124880471249124A134B2D
:1010300000F011F81249134A134B00F00CF8134951
:10104000134A0020521A02DD043A8850FCDC114891
:101050008047114880479B1A03DD043BC858D05095
:10106000FBDC7047947E00100C0000205001002033
:10107000A1100010D87F00105005002008070020A4
:1010800090810010080700200807002008070020B2
:10109000AC0D0020117D0010D1780010FEE700009B
:1010A00080B500AF00F004F800F00EF8BD4680BD3A
:1010B00080B500AF034B034A926E01218A439A66C2
:1010C000BD4680BD0000014080B500AF094BC02285
:1010D0005A62094B084AD26908490A40DA61064B4C
:1010E000074A1A60034BC3225A6200F00BF8BD4650
:1010F00080BDC0460000014000030140FFFDFFFF2E
:101100000001F13F80B500AF2A4B1A68FF231B0294
:1011100013401A0A284B1A60274B1B68002B37D044
:10112000244B1B68FF221A40244B1A60214BDB69B9
:10113000032213401A02214B1B681A431F4B1A60EB
:101140001C4BDA6980239B0013400ED11A4B1B689D
:101150009A021A4B1B68D3181948191C01F05EF942
:10116000031C1A01174B1A6021E000F02FF8031C32
:101170009901114B1B689A02104B1B68D318081C6D
:10118000191C01F04BF9031C1A010E4B1A600EE0FA
:10119000084BDA6980239B00134003D1094B0A4AAC
:1011A0001A6004E000F012F8021C064B1A60BD46FB
:1011B00080BDC04600030140080700200C07002046
:1011C00000001BB7FC3F0020006CDC0280B500AFC4
:1011D000014B181CBD4680BD002D310180B582B089
:1011E00000AF7860BD4602B080BDC04690B585B006
:1011F00000AFF8607A600B23FB180A1C1A700B23EF
:10120000FB181B789B08DBB2181C0B23FB181B7800
:101210009B08DBB21A1CFB6804329200D3580B22E5
:10122000BA18127803210A40D200111CFC228A400D
:10123000D2431A40111CFB68021D9200D150FB687A
:101240005B6F0B22BA1812785200111C03228A40DD
:10125000D2431A40FB685A670B23FB181B78DB0844
:10126000DBB2181C0B23FB181B78DB08DBB21A1C43
:10127000FB6810329200D3580B22BA18127807215B
:101280000A409200111C04228A40D2431A40111CC9
:10129000FB68021C10329200D1500B23FB181B7804
:1012A000DB08DBB2181C0B23FB181B78DB08DBB256
:1012B0001A1CFB6810329200D2587B685B781C1CA9
:1012C0000B23FB181B7807210B409B009C40231C21
:1012D0001A43111CFB68021C10329200D150FB68AB
:1012E000204A93420CD1FB681B6E0B22BA1812786D
:1012F000012191400A1CD2431A40FB681A660DE096
:101300007B681B78DBB25BB2002B07DA7B685A681C
:101310000B23FB181B789A40FB685A600B23FB18C1
:101320001B789B08DBB2181C0B23FB181B789B084F
:10133000DBB21A1CFB6804329200D2587B681B781F
:101340001C1C0B23FB181B7803210B40DB009C406B
:10135000231C1A43111CFB68021D9200D150BD468C
:1013600005B090BD0002044080B500AF024BC3221F
:101370005A62BD4680BDC0460000014080B500AF46
:10138000054BC0225A62C046034B5B6A04221340DD
:10139000FAD1BD4680BDC0460000014080B582B094
:1013A00000AF7860FFF7EAFF084B084A11697A68D6
:1013B0000A431A61C046054B1A688023DB051340B7
:1013C000F9D1FFF7D1FFBD4602B080BD0003014057
:1013D00080B500AF024B1B68181CBD4680BDC046DF
:1013E000FC3F002080B582B000AF021CFB1D1A70CC
:1013F0003B1D0A1C1A803B1D3A1D128803210A401E
:101400001A80FB1D1B780F2B13D8184B174AD26E6E
:10141000F91D09784900081C03218140C9430A408D
:10142000391D0988F81D0078400081400A43DA66BA
:1014300018E0FB1DFA1D12780F210A401A700B4BA1
:101440000A4A126FF91D09784900081C03218140DE
:10145000C9430A40391D0988F81D007840008140C1
:101460000A431A67BD4602B080BDC0460000014075
:1014700080B582B000AF78607A68E2235B00D25812
:10148000C0239B0013405A425341DBB2181CBD4697
:1014900002B080BD90B583B000AF78600C1C101C0A
:1014A000191CFB1C221C1A70BB1C021C1A707B1C12
:1014B0000A1C1A70FB1C1A78BB1C1B781904FF232A
:1014C0001B040B401A437B1C1B781B061A43111C80
:1014D0007A68E2235B00D150BD4603B090BDC046A0
:1014E00080B582B000AF78607B681B6840221A43E9
:1014F0007B681A60BD4602B080BDC04680B582B030
:1015000000AF78607B681B68402293431A1C7B689D
:101510001A60BD4602B080BD80B582B000AF786071
:1015200039607A683B68934200D2131C181CBD4690
:1015300002B080BD80B582B000AF786039607A6853
:101540003B68934200D9131C181CBD4602B080BDF5
:1015500080B590B000AF786039600C23FB630C233A
:10156000BB6300237B6301233B6300237B61002378
:10157000FB626A4BBB620123FB636AE03B681A684B
:10158000131C9B009B185B00181CF96B00F046FFB6
:10159000031C3B613B685B683869191C00F03EFF27
:1015A000031C7B627B6A181C0A2100F05FFF0B1E84
:1015B000052B0AD97B6A181C0A2100F02FFF031C97
:1015C0007B627B6A01337B6206E07B6A181C0A211E
:1015D00000F024FF031C7B627B6A002B0BD07A6A2D
:1015E000131C9B009B185B003869191C00F016FF48
:1015F000031C3B6208E03B69181C0A2100F00EFF47
:10160000031C3B6201237B623B685A683B6A9A4237
:1016100005D83B685B683A6AD31AFB6104E03B6813
:101620005A683B6AD31AFB617B6A142B0ED8BA6ADC
:10163000FB699A420AD9FB6B7B637B6AFB62FB699D
:10164000BB62FB69364A934200D805E0FB6B01336D
:10165000FB63FB6B402B91D9304BBB624023BB63D8
:101660002EE0BB6B01332D4A5343181CF96A00F07E
:10167000D5FE031CFB603B681B891A1EFB689A425F
:1016800006D83B681B891A1CFB689B1ABB6105E0E6
:101690003B681B891A1CFB68D31ABB61BA6ABB6919
:1016A0009A4203D9BB6B3B63BB69BB623B681B8936
:1016B0001A1EFB689A4200D905E0BB6B013BBB6375
:1016C000BB6B022BCDD8FA6A3B6BD31A013B7B6113
:1016D0007B68181CFFF704FF7B69013B1A03E023BA
:1016E000DB011A403B685B89013B9B01FF210B40FA
:1016F0001A433B6B013B1902F0231B010B401A43B9
:101700007B6B013B3F210B401A437B681A617B686E
:10171000181CFFF7F3FEBD4610B080BD1027000077
:10172000E703000090B583B000AF7860081C111C7F
:10173000FB1C021C1A70BB1C0A1C1A70C0467B687A
:10174000181CFFF795FE031C1A1C01235340DBB243
:10175000002BF4D1FB1C1B780133DCB27A68BB1C74
:101760001B78101C02211A1C231CFFF793FEBD4698
:1017700003B090BD80B582B000AF786080239B033A
:10178000181CFFF70BFE7B681B68012293431A1C91
:101790007B681A60C0467B681B6802221340FAD13E
:1017A000BD4602B080BDC04680B58EB000AFF860C7
:1017B0007A600B23FB180A1C1A70FB68181CFFF7D1
:1017C000D9FFFA680B23FB181B78101C191C00F0BA
:1017D0007BF8FB68181C00F0A1F8031C7B63786B96
:1017E000796800F01BFE031C1A1C8023DB009B1A87
:1017F0000020191CFFF790FE021C314B101C191C15
:10180000FFF798FE031C3B633B6B8022D200D31A88
:10181000786B191C00F002FE031CFB627B689B09BD
:10182000BB627B6B9B097B62BB6A9B02181C796A5B
:1018300000F0F4FD031C1A1C214B101C191CFFF7AF
:1018400079FE031C3B627B6A3A6A53439B0AFB6145
:10185000FB699B01FB617A68FB6AD11A7A68FB69B4
:10186000D01A1B23FA18002388425B4113701B23F4
:10187000FB181B78002B01D03B6B00E03B6A7B61BF
:101880001B23FB181B78002B01D0012200E0022251
:101890001323FB181A70FB68DB680A4A1A40FB68BE
:1018A000DA60FB68DA681323FB181B7899037B69FD
:1018B0000B431A43FB68DA60BD460EB080BDC046DC
:1018C000FF030000003CFFFF80B582B000AF7860EE
:1018D0000A1CFB1C1A707A68E4235B00D3580F22A1
:1018E00093431A1CFB1C1B781A43111C7A68E423CF
:1018F0005B00D150BD4602B080BDC04680B582B00D
:1019000000AF78607A68E4235B00D358DBB20F2223
:101910001340DBB2181CBD4602B080BD80B584B058
:1019200000AF78607B68181CFFF7E8FF031E012BEF
:1019300002D0022B05D009E0FFF74AFD031CFB6033
:1019400007E0FFF743FC031CFB6002E00023FB60A1
:10195000C046FB68181CBD4604B080BD80B586B08B
:1019600000AF78607B681B68484A944663445B0913
:101970007B617B695B095A037B691F210B401B025A
:1019800013433B617B681B687A6812689268404920
:101990000A409A607B681B687A68126891683A69A5
:1019A0000A439A607B68DB7920221340DBB2002B6C
:1019B00007D07B68DB7920221340DBB2002B00D1FB
:1019C00061E07B681B7E002B04D07B681B7E012BB3
:1019D00000D058E07B681B682022DA617B68DB79E5
:1019E00020221340DBB2002B28D17B685B68FB60B0
:1019F000FB685B0F5B07FB607B685B68DB00DB08F9
:101A00009B041A1CFB681343FB607B681B68FA6825
:101A10009A617B689B68FB60FB685B0F5B07FB6000
:101A20007B689B68DB00DB089B041A1CFB68134384
:101A3000FB607B681B68FA68DA6009E07B681B68FA
:101A40007A6852689A617B681B687A689268DA6083
:101A50007B681B7E012B0DD17B68181C00F01EF8E3
:101A60007B681B6880221205DA617B681B68094A63
:101A7000DA6108E07B681B6880221201DA617B680A
:101A80001B68054ADA61BD4606B080BD00F0FBAFB9
:101A9000FF00FFFFC00020064006A00080B584B014
:101AA00000AF78600F23FB1803221A707B681B7E3F
:101AB000012B25D17B681B682022DA617B681B68BB
:101AC0007A6812681268144911407A68127B10060D
:101AD000F022120502400A431A607B681B687A688C
:101AE00012691A617B681B687A6852695A617B685F
:101AF0001B680A4ADA610F23FB1800221A7003E000
:101B00000F23FB1803221A700F23FB181B78181CD5
:101B1000BD4604B080BDC046FFFFFFF04000280076
:101B200080B586B000AF78601723FB1801221A70C9
:101B30007B681B68DB69202213405B093B617B6883
:101B40001B68DA6980235B0013401B0AFB603B695A
:101B5000002B04D11723FB1804221A7010E0FB6835
:101B6000012B04D11723FB1802221A7008E07B68AE
:101B70001B68E022D204DA611723FB1800221A70D6
:101B80001723FB181B78181CBD4606B080BDC04645
:101B900080B586B000AF78601723FB1801221A7059
:101BA0001623FB1800221A701523FB1800221A7046
:101BB0007B681B68DA6980231B011340DB0A3B61E9
:101BC0007B681B68DB69042213409B08FB603B6950
:101BD000002B04D01723FB1803221A70D3E0FB68F4
:101BE000012B04D11723FB1802221A70CBE07B686B
:101BF0001B680822DA617B681B689A6980239B0551
:101C000013405B0F51D17B68DA7920218A43DA7166
:101C10007B681B689B695F4A13409B0CDB00DA08FA
:101C20007B68D200D2085968490F49070A435A60B5
:101C30007B681B68DA6880239B0513405B0FDBB26F
:101C40001A1C01231340DAB27B6801210A405001BB
:101C5000DA7A20218A43111C021C0A43DA727B685B
:101C6000DB7A20221340DBB2002B10D07B681B688C
:101C7000DB68484A13409B0CDB00DA087B68D20023
:101C8000D2089968490F49070A439A6043E07B6884
:101C90001B68DB68DB00DA087B68D200D208996831
:101CA000490F49070A439A6035E07B68DA792021B9
:101CB0000A43DA717B681B689B69DB00DA087B6882
:101CC000D200D2085968490F49070A435A607B6815
:101CD0001B68DB68DB00DA087B68D200D2089968F1
:101CE000490F49070A439A607B681B68DA688023BA
:101CF0009B0513405B0FDBB21A1C01231340DAB2C1
:101D00007B6801210A405001DA7A20218A43111CA4
:101D1000021C0A43DA727B681B681A68F0231B05F1
:101D200013401B0EDAB27B681A737B681B681A6952
:101D30007B681A617B681B685A697B685A617B689B
:101D40001B68DB69042213409A081623FB181A70DB
:101D50007B681B68DB6908221340DA081523FB182F
:101D60001A701623FB181B78002B05D01523FB18BF
:101D70001B78002B00D03AE77B6800221A761723E5
:101D8000FB1800221A701723FB181B78181CBD467D
:101D900006B080BD0000FC1F80B582B000AF786047
:101DA0007B68DB68802252001A437B68DA60BD469C
:101DB00002B080BD80B582B000AF78607B68094A10
:101DC000934203D10420FFF7E9FA08E07B68064A52
:101DD000934204D180239B02181CFFF7DFFABD4613
:101DE00002B080BD000004480040044880B582B0C5
:101DF00000AF78607B68181CFFF7DCFFBD4602B0BF
:101E000080BDC04680B584B000AF78600A1CFB1C62
:101E10001A707B68181CFFF7E9FF7B68181CFFF736
:101E2000BBFF7B681B68FB60FB68074A1340FB60D5
:101E3000FB1C1B789B03FA681343FB607B68FA6802
:101E40001A60BD4604B080BDFF3FFFFF80B584B07F
:101E500000AF78600A1CFB1C1A707B681B68FB6073
:101E6000FB6830229343FB60FB1C1B781B01FA6864
:101E70001343FB607B68FA681A60BD4604B080BDFE
:101E800080B582B000AF786039603B681A687B68C3
:101E90005A613B685B799B06DB0FDBB21A057B68F6
:101EA0005A603B681B791B071B0FDBB21A1C7B684F
:101EB0005A623B685B791B071B0FDBB21A1C7B68FD
:101EC0001A623B685B79DB06DB0FDBB21A1C7B68AE
:101ED0009A613B681B791B061B0FDBB21A1C7B68DF
:101EE000DA62BD4602B080BD80B586B000AF7860D2
:101EF000081C111CFB1C021C1A70BB1C0A1C1A704B
:101F00007B68A8229B58FB60FB1C1B78092B1AD806
:101F10009A001A4BD3181B689F4603233B6100238A
:101F20007B6116E00C233B6102237B6111E0C0233F
:101F30009B003B6108237B610BE0C0231B013B61DD
:101F40000A237B6105E0C0239B013B610C237B617D
:101F5000C0463B69DA43FB681340FB60BB1C1A7840
:101F60007B699A40131CFA681343FB607B68A821C5
:101F7000FA685A50BD4606B080BDC046707D00105C
:101F800080B584B000AFF8607A600B23FB180A1CA0
:101F90001A70FB68181CFFF721F9FB681B680B22FD
:101FA000BA1812789200111C0F228A40D2431A40AC
:101FB0007B681B680B217918097889008B401A43CC
:101FC000FB681A600B23FB181A787B685968FB685A
:101FD00004329200D150BD4604B080BD80B584B0BB
:101FE00000AFF8607A600B23FB180A1C1A70FB68BC
:101FF000181CFFF7F3F80B23FB181A787B68196895
:10200000FB6808329200D150BD4604B080BDC04686
:1020100080B582B000AF78607B689B6BDBB27F22BB
:102020009343DBB2181CBD4602B080BD80B582B0C0
:1020300000AF786039607B68DA6C3B681A437B6874
:10204000DA64BD4602B080BD80B582B000AF786072
:1020500039607B68181C00F01FFB7B680E4A5A63CE
:102060003B689B887A68101C191C00F017F83B68C5
:102070001B687A68101C191C00F038F87B68A022D5
:10208000D2009A637B6801225242DA647B680022A4
:102090001A64BD4602B080BD03033F0780B582B01D
:1020A00000AF78600A1CBB1C1A80BB1C1A88F8237E
:1020B000DB011A40F023DB019A420ED1BB1C1B88C6
:1020C000FF221A40BB1C1B885B00191CFE231B024D
:1020D0000B401A437B68DA6304E0BB1C1B881A02BE
:1020E0007B68DA63BD4602B080BDC04680B584B06F
:1020F00000AF786039600F23FB1801221A703B682B
:102100001D4A934213D87B68DB6B1C4A1A407B68DC
:10211000DA637A683B68101C191C0A2200F0F8FA8E
:10212000031E21D10F23FB1800221A701CE03B680C
:10213000134A934214D87B68DB6B802292021A43C5
:102140007B68DA637A683B68101C191C192200F05E
:10215000DFFA031E08D10F23FB1800221A7003E0D8
:102160000F23FB1801221A700F23FB181B78181C71
:10217000BD4604B080BDC046A0860100FFFFFDFF44
:10218000801A060080B584B000AF7860081C111C6E
:10219000BB1C021C1A807B1C0A1C1A70BB1C1B88EF
:1021A0008022D20013439BB2FB607B1C1B78012B67
:1021B00003D1FB6801221343FB607A6884235B0030
:1021C000D258E023DB04134013D1C0467B68181CAF
:1021D000FFF71EFF031E802BF8D07A6880239B0137
:1021E000101C191CFFF722FF7B688021FA685A50E7
:1021F00004E07A68C0235B00F968D150BD4604B0A2
:1022000080BDC04680B584B000AF7860081C111C4A
:10221000BB1C021C1A807B1C0A1C1A70BB1C1B886E
:10222000A022D20013439BB2FB607B1C1B78012BC6
:1022300003D1FB6801221343FB607A6884235B00AF
:10224000D258E023DB04134013D1C0467B68181C2E
:10225000FFF7DEFE031E802BF8D07A6880239B01F7
:10226000101C191CFFF7E2FE7B688021FA685A50A7
:1022700004E07A68C0235B00F968D150BD4604B021
:1022800080BDC04680B582B000AF78607A68842394
:102290005B00D258E023DB04134014D1C0467B68B6
:1022A000181CFFF7B5FE031E802BF8D07A68802338
:1022B0009B01101C191CFFF7B9FE7B688021C0220E
:1022C000D2005A5005E07A68C0235B00C021C900E3
:1022D000D150BD4602B080BD80B582B000AF7860FD
:1022E0000A1CFB1C1A707A6884235B00D258E02316
:1022F000DB04134014D1C0467B68181CFFF788FE2E
:10230000031E802BF8D07A6880239B01101C191CB7
:10231000FFF78CFEFB1C1A787B6880215A5005E081
:10232000FB1C19787A68C0235B00D150BD4602B00F
:1023300080BDC04680B582B000AF78607A688423E3
:102340005B00D258E023DB04134014D1C0467B6805
:10235000181CFFF75DFE031E802BF8D07A688023DF
:102360009B01101C191CFFF761FE7B6880218022F5
:1023700092005A5005E07A68C0235B0080218900F2
:10238000D150BD4602B080BD80B582B000AF78604C
:102390007A6884235B00D258E023DB04134014D115
:1023A000C0467B68181CFFF733FE031E802BF8D055
:1023B0007A6880239B01101C191CFFF737FE7B688D
:1023C0008021C02292005A5005E07A68C0235B0049
:1023D000C0218900D150BD4602B080BD80B584B017
:1023E00000AF78607A6886235B00D258E023DB0474
:1023F000134005D17B685A6D0F23FB181A7006E055
:102400007A688E235B00D2580F23FB181A700F23B3
:10241000FB181B78181CBD4604B080BD80B588B081
:1024200000AF78603960EFF310837B617B693B61BB
:1024300072B63B69FB610C4B04225A630A4B7A6803
:102440001A62094B3A685A62074B9B6ABB61FB6987
:10245000FB60FB68BB60BB6883F31088BB69181C1A
:10246000BD4608B080BDC04600000340F0B58DB049
:1024700000AF78603960EFF310827A617A693A616F
:1024800072B63A69FA62154A04215163134A7968AF
:102490001162124A39685162104AD26A3A620022C5
:1024A0007A620E4A926ABA610022FA61FA6AFA60A6
:1024B000FA68BA60BA6882F310883A6A1400002297
:1024C000131CBA691A43151CFA692243161C2B1CEB
:1024D000341C181C211CBD460DB0F0BD000003408B
:1024E00080B582B000AF78607B689B6BDBB27F22E7
:1024F0009343DBB2181CBD4602B080BD80B582B0EC
:1025000000AF786039607B683A68DA64BD4602B033
:1025100080BDC04680B584B000AF786039601023BC
:10252000FB607B68181C00F0B7F83B68DB79002B78
:1025300002D03B68DB79FB603B681A687968FB680E
:10254000081C111C1A1C00F0E3F83B689B79013B46
:102550005A00FB685B0801331B021343194A1A43F4
:102560007B68DA633B681B79013B1B0681225200C2
:102570001A437B685A633B685B79002B09D07B6800
:102580005A6B3B685B79013B1B041A437B685A63B7
:1025900008E07B685A6B3B681B79013B1B041A43BC
:1025A0007B685A637B68A022D2009A637B68012211
:1025B0005242DA643B681B891A1C7B681A64BD4668
:1025C00004B080BD0100030080B582B000AF786028
:1025D0000A1CBB1C1A807A6884235B00D258E02353
:1025E000DB04134014D1C0467B68181CFFF778FF4A
:1025F000031E802BF8D07A6880239B01101C191CC5
:10260000FFF77CFFBB1C1A887B6880215A5005E0CD
:10261000BB1C19887A68C0235B00D150BD4602B04C
:1026200080BDC04680B584B000AF78607A688623EC
:102630005B00D258E023DB04134005D17B685A6D60
:102640000E23FB181A8006E07A688E235B00D258AE
:102650000E23FB181A800E23FB181B88181CBD467E
:1026600004B080BD80B582B000AF786039607B680F
:102670001A6C3968FE235B020B401A437B681A64AC
:102680007B68DA6B3B68F8210B401A437B68DA639E
:10269000BD4602B080BDC04680B582B000AF786054
:1026A0007A689023DB059A4203D07B68134A9342F1
:1026B00004D1134B181C00F0C1F80BE07B68114AE1
:1026C000934203D07B68104A934203D10F4B181CEE
:1026D00000F0B4F87B680322DA60C0467B68DB68F0
:1026E00001221340FAD07B681B6C0F2293431A1C03
:1026F0007B681A64BD4602B080BDC0460002004837
:1027000008000048004000480042004808400048D7
:1027100080B58EB000AFF860B9607A60BB68632B9B
:102720005CD97B68002B59D0FEF752FE031C181CA5
:102730006421FFF773FE031C3B62BB68181C642115
:10274000FFF76CFE031CBB600123FB620123BB622D
:10275000284B7B62274B3B6324E03B6A3A6B5A432E
:10276000111CBB687A685343081C191CFFF756FEFE
:10277000031CFB61FB699B0ABB61FB699B059B0D0D
:102780007B61BB691B4A934209D87A697B6A9A428A
:1027900005D27B697B62BB69BB623B6BFB623B6BB7
:1027A000013B3B633B6B002BD7D1FB6A80221202BB
:1027B0001A43FB681A61FB685B690F4A1A407B6821
:1027C000013B9B021A43BB6A013B1B041A43FB6893
:1027D0005A613723FB1800221A7003E03723FB18D5
:1027E00001221A703723FB181B78181CBD460EB047
:1027F00080BDC046FF030000EF8000FC80B584B0C0
:1028000000AFF8607A600B23FB180A1C1A70FB6893
:102810009B690B22BA181278072191400A1CD243F7
:102820001A400B23FB181B78796899400B1C1A433C
:10283000FB689A61BD4604B080BDC04680B582B0D9
:1028400000AF78607B68094A934203D10820FEF705
:10285000A5FD08E07B68064A934204D18023DB0291
:10286000181CFEF79BFDBD4602B080BD0800004865
:102870000840004880B584B000AF786039603B1CE8
:102880001B785B075B0FDBB21A1CBB1C1B889B050C
:102890009B0D9BB21B041343FB607A68F8235B001B
:1028A000F968D150FB1C1B78DB06DB0FDBB21A0783
:1028B000FB1C1B781B079B0FDBB29B061A43FB1C00
:1028C0001B789B06DB0FDBB25B071343FB60FB1C33
:1028D0001B785B06DB0FDBB29B07FA681343FB60D8
:1028E0007A68F8235B00D258FB68134380221206F3
:1028F0001A43111C7A68F8235B00D150BD4604B01E
:1029000080BDC04680B582B000AF78607B6884220D
:102910009B58802252041A437B6884215A50BD463A
:1029200002B080BD80B582B000AF78607B68842241
:102930009B58044A1A407B6884215A50BD4602B015
:1029400080BDC046FFFFFFFE80B500AF034BFF22F6
:102950001A600120FEF722FDBD4680BD0005014042
:1029600080B582B000AF78603960FFF7EDFF3B685B
:102970005A697B681A603B685B68802212021A43BE
:102980007B6880215A503B689A687B68A0215A5026
:102990003B68DA687B68A4215A503B6819697A68F9
:1029A000A0239B00D1503B681A687B68B8215A501D
:1029B000BD4602B080BDC04680B584B000AF78602F
:1029C0007B6880229B58802212061A437B688021F4
:1029D0005A500F23FB1800221A701CE00F23FB181B
:1029E0001A78114B9200D358BB60BB6880229A586A
:1029F000C0239B02134007D0C046BB6880229A5870
:102A000080235B051340F8D10F23FB181A780F239E
:102A1000FB1801321A700F23FB181B78012BDDD92C
:102A2000BD4604B080BDC046987D001080B582B020
:102A300000AF786039607A683B685B68101C191CCD
:102A40000022002300F030F87A683B685B68101CB5
:102A5000191C0122002300F027F87A683B689B6864
:102A6000101C191C0022012300F01EF87A683B6834
:102A70009B68101C191C0122012300F015F83B680B
:102A80001A697B6880215A503B68DA687B68B821F4
:102A90005A507A683B681B68101C191CFFF7EAFE45
:102AA000BD4602B080BDC04680B58CB000AFF860B6
:102AB000B9603B60FB1D1A70FB1D1B78002B19D100
:102AC0000823FB62E023DB007B620023BB621F2341
:102AD0003B620823FB181B78DB06DB0EDBB2FB61D5
:102AE0000923FB181B785B075B0FDAB21B23FB186B
:102AF0001A7019E01823FB62E023DB047B621023C9
:102B0000BB62F8235B033B620A23FB181B78DB06DE
:102B1000DB0EDBB2FB610B23FB181B785B075B0F43
:102B2000DAB21B23FB181A70FB683A68283292004D
:102B3000D3587B617B6ADA437B6913407B611B233B
:102B4000FB181A78FB6A9A40131C7A6913437B615D
:102B50003B6ADA437B6913407B61BB6AFA699A403E
:102B6000131C7A6913437B61FB683A682832920030
:102B70007969D150BD460CB080BDC04680B584B0E7
:102B800000AF78600A1CFB1C1A707B6880229B587F
:102B9000FB60FB6803229343FB60FB1C1B78FA6815
:102BA0001343FB607B688021FA685A50BD4604B02D
:102BB00080BDC04680B584B000AF786039607B6866
:102BC000181CFFF7AFFE7B6884229B58FB60FB68F4
:102BD00003229343FB603B681B781B079B0FDBB210
:102BE0001A1CFB681343FB603B681B7803221340ED
:102BF000DBB2002B03D0FB6808221343FB607B6829
:102C00008421FA685A503B685B68154A1A43111CC4
:102C10007A6880235B00D1503B689B6801221A438D
:102C2000111C7A6882235B00D1503B681B78032219
:102C30001340DBB2022B0BD17A6882235B00D3589E
:102C4000802252021A43111C7A6882235B00D15001
:102C50007B68181CFFF756FEBD4604B080BDC04619
:102C60000080808080B588B000AFF860B9607A607D
:102C70007B681B7BBB61FB6888229B587B61BB68C0
:102C800001229A40131CDA437B6913407B61BB68C5
:102C9000BA699A40131C7A6913437B61FB688821E7
:102CA0007A695A507B685B7B5BB2002B2ADB00237E
:102CB000FB61BB68012B0AD10823FB61FB68B022D2
:102CC0009B581E4A1A40FB68B0215A500DE0BB6861
:102CD000002B0AD10023FB61FB68B0229B581F2206
:102CE00093431A1CFB68B0215A50FB68B0229B58D2
:102CF0007A68527B51B2FA6991400A1C1A43FB6808
:102D0000B0215A50FB68C8229A587B685B681A4306
:102D1000FB68C8215A50FB68D0229A587B689B6890
:102D20001A43FB68D0215A507B681968FB68BA685F
:102D300080329200D150BD4608B080BDFFE0FFFF59
:102D400080B586B000AFF860B960FB1D1A70BB6833
:102D5000072B1BD8FA68D8235B00D3587B61BB686C
:102D60009B001A1C0F239340DA437B6913407B615D
:102D7000FB1D1B78BA68920093407A6913437B610C
:102D8000FA68D8235B007969D15020E0FA68DA2329
:102D90005B00D3587B61BB680E4A944663449B003A
:102DA0001A1C0F239340DA437B6913407B61FB1DA0
:102DB0001B78BA6807498C466244920093407A694E
:102DC00013437B61FA68DA235B007969D150BD4611
:102DD00006B080BDF8FFFF3F80B500AFBD4680BDA7
:102DE00080B582B000AF78600A1CFB1C1A707B684B
:102DF0005A6AFB1C1B78DA40131C01221340181C72
:102E0000BD4602B080BDC04680B584B000AFF8605A
:102E1000B9607A603B60BB681B79002B2DD0BB6822
:102E20000022DA70BB68544A1A80BB6801229A708B
:102E3000BB6801225A71BB6801229A7100200021EF
:102E400001F0F2FB0320002101F0EEFB0120002144
:102E500001F0EAFB0220002101F0E6FBFB69002201
:102E60009A70FB690022DA70FB6901221A70FB6913
:102E700000225A70BB6801221A717B681B790122FB
:102E80005340DBB2002B15D0B8693C4904F072FE08
:102E9000031E03D13B68DB78002B0BD07B6800223C
:102EA000DA707B6801229A707B68354A1A807B68E9
:102EB00001221A71B869314904F05CFE031E03D186
:102EC0003B68DB78002B50D03B6A1B78042B4CD13D
:102ED0007B68DB78002B47D0BB689B79002B28D020
:102EE000BB6A1B88274A944663449AB2BB6A1A801D
:102EF000BB6A1A885B881B04134300221A1C101C2F
:102F000003F054F97B6A1A78597809020A439B78CE
:102F10001B041A4300231202120A1B0E1B06134342
:102F2000181C03F011F8BB6800229A71BB680022DC
:102F30005A710220012101F077FB0320012101F0E9
:102F400073FBFB690122DA70FB6801221A70BB680F
:102F500000229A70BB6800221A717B6800229A7066
:102F60007B6800221A7103E002E07B6800221A717C
:102F7000BD4604B080BDC046581B0000000016438B
:102F80001027000030F8FFFF80B584B000AFF86074
:102F9000B9607A603B60BB681B7901225340DBB2A9
:102FA000002B13D03A4B181C0221FFF719FF031E08
:102FB0000CD1BB680022DA70BB6801229A70BB6832
:102FC000FA22D2001A80BB6801221A71304B181CF9
:102FD0000221FFF705FF031E0AD1BB68DB78002B37
:102FE0000CD0BB680022DA707B6801221A7005E001
:102FF000BB6800221A71BB6800229A707B681B783C
:10300000002B41D0234B1B7801225340DBB2002B15
:103010000ED03B6800229A703B680122DA703B6850
:1030200001221A703B6800225A701A4B01221A7052
:10303000194B5B78002B27D00120012101F0F4FA15
:10304000164B01221A70154B1B78002BFBD1032065
:10305000002101F0E9FA3B6801229A703B680022E6
:10306000DA703B6802221A703B6801225A70FB68D2
:1030700002221A700020012101F0D6FA054B00222D
:103080001A707B6800221A70BD4604B080BDC0462D
:103090000002044010070020800D0020740A002068
:1030A00080B584B000AFF860B9607A603B60BB68FF
:1030B0001B78042B02D1FB6804221A707B681B79F1
:1030C00001225340DBB2002B19D03B689B780122D0
:1030D0005340DBB2002B12D0264B181C0221FFF705
:1030E0007FFE031E0BD17B680022DA707B68012211
:1030F0009A707B68204A1A807B6801221A711D4BE6
:10310000181C0221FFF76CFE031E12D11B4B1B780B
:1031100001225340DBB2002B0BD07B68DB78002B05
:1031200006D0164B01221A707B680022DA7006E086
:1031300005E07B6800221A717B6800229A700F4BB1
:103140001B78002B12D00B4B181C0221FFF748FEF6
:10315000031E0BD0094B00221A70FB6803221A7061
:103160007B6800229A707B6800221A71BD4604B009
:1031700080BDC04600020440B80B000011070020CB
:1031800080B584B000AFF860B9607A603B60BB681E
:103190001B78062B0CD1194B1B7801225340DBB254
:1031A000002B05D0BB6900225A70144B01221A7003
:1031B000BB681B78042B1DD10320002101F034FAD9
:1031C0000F4B01221A700E4B1B78002BFBD10120F4
:1031D000002101F029FABB6900229A70BB69002224
:1031E000DA70BB6901221A70FB6801221A70034B66
:1031F00000221A70BD4604B080BDC04612070020F0
:10320000740A002080B584B000AFF860B9607A60BD
:103210003B603B685B7801225340DBB2002B02D05D
:10322000FB6901225A70BB681B78062B02D1FB6830
:1032300002221A70BB691B88322B09D83B68DB78E5
:1032400001225340DBB2002B02D0FB6805221A702A
:10325000BD4604B080BDC04680B582B000AF786086
:1032600039603B681B7901225340DBB2002B0CD044
:103270003B6801229A703B68FA2292001A803B68F0
:1032800001221A713B680022DA703B68DB78002B60
:1032900009D00020002101F0C7F93B6800221A7113
:1032A0007B6800221A70BD4602B080BD80B582B036
:1032B00000AF78601F4B181C0221FFF791FD031E21
:1032C000012B03D17B680122DA7002E07B680022C7
:1032D000DA70184B181C0321FFF782FD031E012B27
:1032E00003D17B6801229A7002E07B6800229A7009
:1032F000104B181C0421FFF773FD031E012B03D193
:103300007B6801225A7102E07B6800225A71094BE6
:10331000181C0521FFF764FD031E012B03D17B68F8
:1033200001221A7102E07B6800221A71BD4602B0C8
:1033300080BDC0460004044080B584B000AFF86092
:10334000B9607A603B60BB681B791A1C7B68DB78CC
:1033500013433A68D2781343BA69D2781343FA69AF
:10336000D27813435A1E9341DAB2FB685A70BD46B5
:1033700004B080BD80B582B000AF021CFB1D1A7086
:10338000FB1D1B787F2B0AD80649FB1D1B781A1CD6
:103390001F23134001229A40C0235B00CA50BD4640
:1033A00002B080BD00E100E080B500AFBFF34F8FF9
:1033B000034B044ADA60BFF34F8FC046FDE7C046B7
:1033C00000ED00E00400FA0580B582B000AF78603F
:1033D0000A1CFB1C1A70FB1C1B78034A9A407B6872
:1033E0005A60BD4602B080BD0100010080B582B0C8
:1033F00000AF78600A1CFB1C1A707B68B0229A58D8
:10340000FB1C1B78012199400B1C1A437B68B021DF
:103410005A50BD4602B080BD80B582B000AF786022
:1034200039607B683A68DA64BD4602B080BDC04648
:1034300080B582B000AF78600A1CFB1C1A70FB1CC0
:103440001A787B6804329200D15880208143D15091
:10345000BD4602B080BDC04680B582B000AF786086
:1034600039607B683A68C0329200D3589BB2181C0E
:10347000BD4602B080BDC04680B582B000AF786066
:1034800039603B6801229A40111C7A68CA235B00AC
:10349000D150BD4602B080BD80B582B000AF2D4B8B
:1034A000181CFFF7BFF8031C1A1CFB1D1A70FB1D2C
:1034B0001B789BB2274A101C191CFFF785F8FB1DCF
:1034C0001B78413B2C2B3AD89A00234BD3181B680E
:1034D0009F46012003F0D0FD022003F0EBFD002009
:1034E00003F0CAFD1D4B181C0B21FFF76DFF27E0F1
:1034F0000020002101F098F822E00120012101F0D4
:1035000093F81DE00120002101F08EF818E0022060
:10351000012101F089F813E00220002101F084F874
:103520000EE00320012101F07FF809E003200021D3
:1035300001F07AF804E00A4B01221A7000E0C0465C
:10354000044A8023DB01101C191CFFF765FFBD46F0
:1035500002B080BD00020048A07D001000020440BF
:103560001508002080B500AF02F04EFF031C1A1CA6
:103570001D4B111C1980120C5A8003F09BF8031C80
:103580001A1C1A4B111C19701104090E59701202E1
:10359000120E9A70144B1B88FA22D2009446634490
:1035A00099B2134B542299520F4B9978104B5622D3
:1035B00099540D4BD9780E4B572299540B4B1978CF
:1035C0000B4B58229954094B5978094B592299545D
:1035D000064B9978064B5A229954064B181C032126
:1035E000FFF726FFBD4680BD8C0A00202C0D002071
:1035F000B80A00203006014080B500AF184B181CF7
:103600000221FFF739FF164B181C0021FFF724FF9A
:10361000031C1A1C134B1A80114B181C0121FFF7B5
:103620001BFF031C1A1C0F4B5A800D4B181C022148
:10363000FFF712FF031C1A1C0A4BDA80084B181CF8
:103640000321FFF709FF031C1A1C064B9A80064A48
:10365000044B101C191C02F089F8BD4680BDC04601
:1036600000080348AC0A0020180B002090B583B076
:1036700000AFCC4B181CFEF78BFACA4B5B68DB0023
:10368000DB08C94A94466344082B00D97FE19A00BD
:10369000C64BD3181B689F46C54C3A1CC14B101C27
:1036A000191C01F037FA3B1C211C1A1C0523081CAD
:1036B000111C1A1C04F052FBBE4B00221A80BC4B9A
:1036C0001A78BD4B1A70BC4B1B789B00DAB2B84B12
:1036D0009B78DBB21343DBB2DAB2B74B1A70B64B4E
:1036E0001B78DB00DAB2B24BDB78DBB21343DBB220
:1036F000DAB2B14B1A70B04B1A78AE4B1A7147E17F
:10370000A84B181C01F0C0FA031C1A1CAB4B111C6F
:1037100019701104090E59701102090E9970120ED8
:10372000DA70A64B1A78A44B1A70A34B1B789B0037
:10373000DAB2A24B5B78DBB21343DBB2DAB29E4B58
:103740001A709D4B1B78DB00DAB29C4B9B78DBB286
:103750001343DBB2DAB2984B1A70974B1978954B3A
:103760002022995414E18F4B181C01F019FB031C03
:103770001A1C934B111C19701104090E5970110277
:10378000090E9970120EDA708D4B1A788A4B1A70E6
:10379000894B1B789B00DAB2894B5B78DBB2134311
:1037A000DBB2DAB2844B1A70834B1B78DB00DAB2DF
:1037B000834B9B78DBB21343DBB2DAB27E4B1A70D9
:1037C0007D4B19787B4B21229954E1E0754B181CF5
:1037D00001F090FB031C1A1C7A4B111C1970110488
:1037E000090E59701102090E9970120EDA70754B9C
:1037F0001A78714B1A70704B1B789B00DAB2714BC0
:103800005B78DBB21343DBB2DAB26B4B1A706A4BF4
:103810001B78DB00DAB26B4B9B78DBB21343DBB275
:10382000DAB2654B1A70644B1978624B22229954B4
:10383000AEE05C4B181C01F0CFFB031C1A1C624B62
:10384000111C19701104090E59701102090E99709A
:10385000120EDA705C4B1A78574B1A70564B1B7865
:103860009B00DAB2584B5B78DBB21343DBB2DAB2BF
:10387000514B1A70504B1B78DB00DAB2524B9B78DD
:10388000DBB21343DBB2DAB24B4B1A704A4B1978F6
:10389000484B232299547BE04C4C3A1C414B101C62
:1038A000191C01F035FC3B1C211C1A1C0823081CA8
:1038B000111C1A1C04F052FA444BDA883D4BDA8092
:1038C000424B9A883B4B1A81404B1A88394B5A819C
:1038D0003E4B5A88374B9A815AE03D4C3A1C314B4B
:1038E000101C191C01F05CFC3B1C211C1A1C082339
:1038F000081C111C1A1C04F031FA354BDB889AB2F3
:103900002C4BDA81324B9B889AB22A4B1A82304B6D
:103910001B889AB2274B5A822D4B5B889AB2254B53
:103920009A8235E02B4C3A1C1E4B101C191C01F0DE
:103930007BFC3B1C211C1A1C0823081C111C1A1C94
:1039400004F00CFA234BDA881A4BDA82214B9A885E
:10395000184B1A831F4B1A88164B5A831D4B5A88D3
:10396000144B9A8314E00F4B181C01F0A5FC031CA8
:103970001A1C194B111C1980120C5A80164B5A88AC
:103980000C4BDA83144B1A880A4B5A8000E0C0466D
:10399000124B01221A700720FFF7ECFCBD4603B062
:1039A00090BDC0465806002000FEFFFF547E001068
:1039B000800D0020540D0020750A0020300D0020DD
:1039C000940A0020880A0020B40A00206C0A002013
:1039D000A00A00203C0D0020280D0020A90A00208C
:1039E00080B500AF044B181C0221FFF721FDFFF743
:1039F000DBFCBD4680BDC0460006014080B500AF7F
:103A0000394B181C0021FFF7F1FC384B9B78002B39
:103A100018D0374B1B881A1C344B1B88013B9A4229
:103A200009D1324B00229A70304B0122DA70304BB0
:103A300000221A8009E02E4B1B8801339AB22C4BCE
:103A40001A8002E02A4B00221A802A4B9B78002B16
:103A500018D0274B5B881A1C264B1B88013B9A42C7
:103A600009D1244B00229A70224B0122DA70204B9C
:103A700000225A8009E01E4B5B8801339AB21C4B2E
:103A80005A8002E01A4B00225A801B4B9B78002B75
:103A900018D0174B9B881A1C174B1B88013B9A4266
:103AA00009D1154B00229A70134B0122DA70104B8A
:103AB00000229A8009E00E4B9B8801339AB20C4B8E
:103AC0009A8002E00A4B00229A800C4B1B78012B53
:103AD00006D80A4B1B780133DAB2084B1A7001E0A2
:103AE00000F00EFEBD4680BD00010448780A0020AB
:103AF00014070020940D0020A40D00201C070020B6
:103B000090B583B002AF414B181C0021FFF76EFC4B
:103B10003F4B1B7801225340DBB2002B05D03D4BBD
:103B20001B780133DAB23B4B1A70802359003A4AB2
:103B30003A4B081C111C1A1C00F05CFF0223FF33D7
:103B4000191C354A354B081C111C1A1C00F052FF79
:103B5000334B1B78002B08D09023DB05181C3B212E
:103B6000FEF732FD2E4B00221A702A4B1B781A1CCE
:103B70000F23013B9A4202D12A4B01221A70254B96
:103B80001B781A1C1923013B9A4202D1264B0122B1
:103B90001A70204B1B781A1C1E23013B9A4202D13B
:103BA0001C4B00221A70214B1B78002B2AD01D4B76
:103BB0001B78002B26D01E4B19781E4B24229954BB
:103BC0001B4B5A881B4BDA84194B1979194B282245
:103BD0009954174B5979174B29229954144B9979B9
:103BE000144B2A229954144A124CAA230093101CF5
:103BF00005212922231C03F04DFC0F4B181C2E21FC
:103C000003F09EFDBD4601B090BDC04600020448D1
:103C1000500500201D0700209C0D0020800A002078
:103C200016080020A00D002014080020A80A00207B
:103C3000340D0020540D0020340B002080B582B0DC
:103C400000AF684A8023DB01101C191CFFF7E4FB5E
:103C5000644B181CFEF7E6FC031C1A1CFB1D1A70B3
:103C6000614B1B78012B40D002DC002B07D0B6E063
:103C7000022B00D173E0032B00D17EE0AFE05A4B62
:103C800000221A70594B1B881B029AB2FB1D1B782D
:103C90009BB213439BB29AB2544B1A80534B1B886E
:103CA000534A93420FD1504B01221A704F4B0022BE
:103CB0001A80504B00221A704F4B00221A704F4B43
:103CC00028221A7010E04C4B1B780133DAB24A4BB1
:103CD0001A70494B1B78022B06D1444B00221A80E4
:103CE000454B00221A707AE079E03F4B01221A70AE
:103CF000404B1B78002B0AD1404BFA1D12781A70EA
:103D00003C4B1B780133DAB23A4B1A7026E0394B40
:103D10001B781A1C394B1B78033B9A4210D1354B48
:103D20001B78013B364AF91D0978D1542E4B0222EB
:103D30001A70304B1B780133DAB22E4B1A700DE03B
:103D40002C4B1B78013B2E4AF91D0978D154294B85
:103D50001B780133DAB2274B1A7040E03FE0254B65
:103D60001B78013B264AF91D0978D154214B0022CA
:103D70001A701D4B03221A7031E01B4B03221A707C
:103D8000204B1B881B029AB2FB1D1B789BB213436E
:103D90009BB29AB21B4B1A801A4B1B881A4A934249
:103DA0001CD1114B00221A70164B00221A80174AA0
:103DB000134B101C191C1E2200F05EFA134B181C2A
:103DC0004621FEF701FC114B181C0D21FEF7FCFBF0
:103DD0000E4B181C0A21FEF7F7FBFFE7C046BD4655
:103DE00002B080BD004000481E07002020070020D0
:103DF000BBAA000022070020230700202407002080
:103E000028070020480700200A0D00000002004893
:103E100098B500AF574B1B781C1C9023DB05181C72
:103E2000FEF700FC031CDAB2534B1A55514B1B78BA
:103E30001A1C514B9B5C232B03D14E4B00221A7052
:103E40008EE04C4B1B781A1C4B4B9B5C4B2B00D0D1
:103E500080E04A4B01229A71474B1B78303B9BB262
:103E6000FA22920053439AB2434B5B78303B9BB2A9
:103E700064214B439BB2D3189AB23F4B9B78303BA3
:103E80009BB2191C8900CB18DB189BB2D3189AB2CD
:103E9000394BDB789BB2D3189BB2303B9AB2384B8C
:103EA0001A80354B1B79303BDBB21A1C9200D318B9
:103EB000DB18DAB2304B5B79D318DBB2303BDAB2C5
:103EC0002F4B9A702C4B9B79303BDBB21A1C920023
:103ED000D318DB18DAB2284BDB79D318DBB2303BCE
:103EE000DAB2274BDA70244B1B7A303BDBB21A1C58
:103EF0009200D318DB18DAB21F4B5B7AD318DBB20F
:103F0000303BDAB21F4B1A701B4B9B7A303BDBB253
:103F10001A1C9200D318DB18DAB2174BDB7AD318CD
:103F2000DBB2303BDAB2174B5A70134B1B7B303B82
:103F3000DBB21A1C9200D318DB18DAB20E4B5B7B93
:103F4000D318DBB2303BDAB20E4B9A70094B002229
:103F50001A7005E0074B1B780133DAB2054B1A7073
:103F60009023DA058023DB01101C191CFFF754FA9B
:103F7000BD4698BD4A0700204C070020940D002044
:103F80008C0A00202C0D002080B500AF0A4B1B7856
:103F9000002B0FD0084B5B88013B9AB2064B5A802E
:103FA000054B5B88002B05D1034B00221A70024B96
:103FB00001221A71BD4680BD2C0B002080B582B055
:103FC00000AF021CFB1D1A70FB1D1B787F2B09D84C
:103FD000064BFA1D1278111C1F220A400121914044
:103FE0000A1C1A60BD4602B080BDC04600E100E078
:103FF000B0B582B000AF021C3960FB1D1A70FB1D0A
:104000001B787F2B27D82D4CFB1D1B785BB29B08A0
:104010002A49FA1D127852B29208C03292005258C0
:10402000F91D0978081C03210140C900081CFF2163
:104030008140C94311403A689201FF200240F81DB7
:104040000078051C03202840C00082400A43C0338A
:104050009B001A512EE01A4CFB1D1B781A1C0F23D3
:104060001340083B9908164AFB1D1B78181C0F23A8
:104070000340083B9B0806339B00D3185B68FA1D7E
:104080001278101C03220240D200101CFF22824032
:10409000D2431A403B689B01FF200340F81D007883
:1040A000051C03202840C00083401A438B1D9B0041
:1040B000E3185A60BD4602B0B0BDC04600E100E062
:1040C00000ED00E080B582B000AF7860081C111CE4
:1040D000FB1C021C1A70BB1C0A1C1A70FB1C1878F3
:1040E000FB1C1B787A6806339B00D3185B68072299
:1040F00093431A1CBB1C1B781A437968831D9B00D1
:10410000CB185A60BD4602B080BDC04680B582B0B3
:1041100000AF78607B689B6BDBB27F229343DBB29E
:10412000181CBD4602B080BD80B582B000AF78607B
:104130007B681B6C0F22934302221A437B681A642C
:10414000BD4602B080BDC04680B584B000AFF86007
:104150007A600B23FB180A1C1A70F9680B23FB18F2
:104160001A787B68081C111C1A1CFEF747FBBD4619
:1041700004B080BD80B582B000AF786039607B68E4
:104180003A68DA64BD4602B080BDC04680B582B0F0
:1041900000AF7860081C111CFB1C021C1A70BB1CB1
:1041A0000A1C1A70FB1C1878FB1C1B787A680633F3
:1041B0009B00D3185B68502293431A1C7968831DB7
:1041C0009B00CB185A607968FB1C1A78BB1C1B78C3
:1041D000081C111C1A1CFFF775FFBD4602B080BDFC
:1041E00080B500AF1E4A1F4B101C02211A1CFCF7A1
:1041F000FDFF1B4A1C4B101C03211A1CFCF7F6FF89
:104200001A4B181CFEF748FA184A194B101C191CB7
:10421000FEF780F9154B181C00210022FFF7B6FFAE
:10422000124A8023DB01101C191CFEF71BFA0F4BEE
:10423000181C08210422FFF787FF0E4B1920191CB8
:10424000FDF7D0F819200A21FFF7D2FE1920FFF759
:10425000B5FE064B181CFFF767FFBD4680BDC04684
:104260000001044054050020180800200002004806
:104270005C0500200219000080B584B000AFF86032
:10428000B9607A601AE0C046FB68181CFFF73EFF71
:10429000031E802BF8D0FA6880239B01101C191C88
:1042A000FFF768FFBB681B78191CFB6880229950D8
:1042B0007B68013B7B60BB680133BB607B68002B84
:1042C000E1D1BD4604B080BD80B582B000AF021C14
:1042D000FB1D1A70FB1D1B787F2B09D8064BFA1D9E
:1042E0001278111C1F220A40012191400A1C1A60F9
:1042F000BD4602B080BDC04600E100E0B0B582B06E
:1043000000AF021C3960FB1D1A70FB1D1B787F2B50
:1043100027D82D4CFB1D1B785BB29B082A49FA1D40
:10432000127852B29208C03292005258F91D0978A0
:10433000081C03210140C900081CFF218140C9431A
:1043400011403A689201FF200240F81D0078051CD8
:1043500003202840C00082400A43C0339B001A510A
:104360002EE01A4CFB1D1B781A1C0F231340083B30
:104370009908164AFB1D1B78181C0F230340083BA5
:104380009B0806339B00D3185B68FA1D1278101C3B
:1043900003220240D200101CFF228240D2431A4066
:1043A0003B689B01FF200340F81D0078051C03209B
:1043B0002840C00083401A438B1D9B00E3185A60BD
:1043C000BD4602B0B0BDC04600E100E000ED00E037
:1043D00080B582B000AF78607A6882235B00D358E2
:1043E000802292001A43111C7A6882235B00D1500C
:1043F000BD4602B080BDC04680B582B000AF7860D7
:10440000396039687A6888235B00D150BD4602B0B4
:1044100080BDC04680B584B000AFF860B9607A60F6
:104420007B681968FB68BA68A0329200D150BD461B
:1044300004B080BD80B584B000AFF8607A600B2313
:10444000FB180A1C1A700B23FB181B787A689A4019
:10445000FB685A60BD4604B080BDC04680B500AF61
:104460004C4A4D4B101C09211A1CFCF7BFFE494A4F
:10447000494B101C03211A1CFCF7B8FE454A464B59
:10448000101C04211A1CFCF7B1FE424A424B101CBE
:1044900005211A1CFCF7AAFE404A414B101C191CAE
:1044A000FEF75EFA3F4A404B101C191CFEF7BEFA9D
:1044B0003C4B181C0321FEF761FB384B181CFEF720
:1044C0007BFA384A394B101C191CFEF773FB354A2E
:1044D000374B1B68101C191CFFF78EFF314A344BF9
:1044E0005B68101C191CFFF787FF2E4A304B9B6836
:1044F000101C191CFFF780FF2A4A2D4BDB68101C8B
:10450000191CFFF779FF274A2A4B101C04211A1C9B
:10451000FEF7A8FB234A284B101C05211A1CFEF7A6
:10452000A1FB204A254B101C06211A1CFEF79AFB02
:104530001C4A234B101C07211A1CFEF793FB194A37
:10454000204B101C00211A1CFFF764FF154A1E4B5C
:10455000101C01211A1CFFF75DFF124A1B4B101C97
:1045600002211A1CFFF756FF0E4A194B101C03219B
:104570001A1CFFF74FFF0B4B181C03210022FEF7FC
:10458000DFFB13201121FFF7B9FE1320FFF79CFE7C
:10459000BD4680BD00020440200800200000034802
:1045A00068050020000803488005002094050020CD
:1045B000A0050020B0050020C0050020D005002087
:1045C000E0050020F0050020F4050020F80500209B
:1045D000FC05002080B500AF0E4A0F4B101C0421D3
:1045E0001A1CFCF703FE0B4A0C4B101C05211A1C6D
:1045F000FCF7FCFD074A0A4B101C06211A1CFCF7AD
:10460000F5FD044A074B101C07211A1CFCF7EEFDB0
:10461000BD4680BD000104401806002000060020B1
:10462000080600201006002080B582B000AF021CF2
:10463000FB1D1A70BB1D0A1C1A70FB1D1B78012B79
:104640001CD002DC002B05D054E0022B2AD0032B17
:104650003CD04FE0BB1D1B78002B06D0274B181C0D
:1046600004210122FFF7E6FE44E0244A80235B0296
:10467000101C04211A1CFFF7DDFE3BE0BB1D1B785C
:10468000002B06D01D4B181C05210122FFF7D2FE7E
:1046900030E01A4A80235B02101C05211A1CFFF728
:1046A000C9FE27E0BB1D1B78002B06D0134B181C3E
:1046B00006210122FFF7BEFE1CE0104A80235B02A8
:1046C000101C06211A1CFFF7B5FE13E0BB1D1B785A
:1046D000002B06D0094B181C07210122FFF7AAFE68
:1046E00007E0064A80235B02101C07211A1CFFF713
:1046F000A1FEC046BD4602B080BDC04600010440D8
:1047000080B500AF024B181CFFF762FEBD4680BDAE
:104710000008034880B582B000AF021CFB1D1A7070
:10472000FB1D1B787F2B09D8064BFA1D1278111C34
:104730001F220A40012191400A1C1A60BD4602B0A6
:1047400080BDC04600E100E0B0B582B000AF021C01
:104750003960FB1D1A70FB1D1B787F2B27D82D4C51
:10476000FB1D1B785BB29B082A49FA1D127852B2D6
:104770009208C03292005258F91D0978081C032192
:104780000140C900081CFF218140C94311403A681B
:104790009201FF200240F81D0078051C03202840EC
:1047A000C00082400A43C0339B001A512EE01A4CCD
:1047B000FB1D1B781A1C0F231340083B9908164A4F
:1047C000FB1D1B78181C0F230340083B9B08063376
:1047D0009B00D3185B68FA1D1278101C032202405C
:1047E000D200101CFF228240D2431A403B689B013A
:1047F000FF200340F81D0078051C03202840C0005E
:1048000083401A438B1D9B00E3185A60BD4602B0DB
:10481000B0BDC04600E100E000ED00E080B582B030
:1048200000AF78600A1CFB1C1A707B68DB680722EB
:1048300093431A1CFB1C1B7807210B401A437B680F
:10484000DA60BD4602B080BD80B582B000AF78604E
:104850007B681B6840221A437B681A60BD4602B021
:1048600080BDC04680B582B000AF78607B681B68B1
:10487000402293431A1C7B681A60BD4602B080BD7B
:1048800080B582B000AF78607B681B6801229343DB
:104890001A1C7B681A60BD4602B080BD80B584B02A
:1048A00000AFF8607A600B23FB180A1C1A70FB68D3
:1048B0001B68FA68126892680B217918097807203A
:1048C0008840011CC94311400B22BA18127878683D
:1048D0009040021C0A439A60BD4604B080BDC046A9
:1048E00080B582B000AF786039607B681B687A68F9
:1048F000126811683A680A431A60BD4602B080BD6A
:1049000080B500AF314A324B101C05211A1CFCF750
:104910006DFC2E4A2F4B101C04211A1CFCF766FC60
:104920002D4A2E4B101C01211A1CFCF73DFF2C4B6D
:10493000181CFFF789FF2A4B181C0021FFF76EFF98
:10494000274B181CFFF78EFF254B181CFFF77CFF29
:10495000234A244B101C191CFCF7FAFD204B181C91
:10496000FFF780FF204B181CFCF7F8FF1F4B181CAB
:10497000FCF7F4FF1D4A80235B02101C191CFFF793
:10498000AFFF1B4B0720191CFCF72CFD174B181C05
:1049900000210322FFF782FF07200121FFF7D4FE49
:1049A0000720FFF7B7FE0C4B181C00210422FCF770
:1049B000B9FE094B181C00210222FCF7B3FE084B7C
:1049C000181CFFF75DFFBD4680BDC04600000440D7
:1049D000200600202808002000000450C0D8A700AE
:1049E0000002045028060020380600205806002047
:1049F0000107000080B584B000AFF860B9607A604C
:104A0000FB6880225200934204D00222FF3293427C
:104A100037D072E0FB68DB00DA083D4BD200D208E9
:104A20005968490F49070A435A60394B00221A74E2
:104A3000BB681A78364B5A74354B00229A74BB689F
:104A40005A78334BDA74324B00221A75304B0022FD
:104A50005A752F4B5B7DDAB2BB68DB785B00D9B24D
:104A6000BB689B78DBB20B43DBB21343DBB2DAB239
:104A7000274B5A75264B00229A75254B0022DA7572
:104A80003BE0FB68DB00DA08214BD200D208596812
:104A9000490F49070A435A607B681B881B0A9BB26F
:104AA000DAB21B4B1A747B681B88DAB2184B5A7443
:104AB0007B685B881B0A9BB2DAB2154B9A747B68E1
:104AC0005B88DAB2124BDA747B689B881B0A9BB254
:104AD000DAB20F4B1A757B689B88DAB20C4B5A75A9
:104AE0007B68DB881B0A9BB2DAB2094B9A757B683C
:104AF000DB88DAB2064BDA75C046054B181CFCF7AA
:104B00002DFF034B181CFDF70BF8BD4604B080BD0C
:104B10003806002080B584B000AF786039600F237C
:104B2000FB183A68127C1A700F23FB181B78032BB2
:104B300004D80823FB1800221A7017E00F23FB1873
:104B40001B78042B04D00F23FB181B78052B04D1F2
:104B50000823FB1804221A7008E00F23FB181B78A7
:104B6000062B03D10823FB1806221A700F23FB180B
:104B70003A68527C1A700F23FB181B78002B04D064
:104B80000823FB1801225A7003E00823FB180022B7
:104B90005A700823FB1800229A700823FB18002281
:104BA0001A710F23FB183A68927C1A700F23FB18B6
:104BB0001B789B09DBB21A1C0123134007D0082382
:104BC000FB1806229A700823FB1801221A710F2382
:104BD000FB183A68D27C1A700F23FB181B78DB098C
:104BE000DBB21A1C0123134007D00823FB18012253
:104BF0009A700823FB1801221A710F23FB181B78E7
:104C00009B09DBB21A1C0123134003D00823FB18B5
:104C100002229A700F23FB181B785B09DBB21A1C67
:104C20000123134003D00823FB1803229A700F239B
:104C3000FB181B781B09DBB21A1C0123134003D09D
:104C40000823FB1804229A700F23FB181B78DB083B
:104C5000DBB21A1C0123134007D00823FB180522DE
:104C60009A700823FB1801221A717A680823FB182E
:104C7000111C1A1C0523081C111C1A1C03F06EF8C9
:104C80007868BD4604B080BD80B586B000AF78605E
:104C90000C23FB180022DA701723FB187A68127CA9
:104CA0001A701723FB181B78032B09D91723FB183D
:104CB0001B78062B04D01723FB181B78072B04D175
:104CC0000C23FB1800221A701CE01723FB181B781A
:104CD000042B04D01723FB181B78052B04D10C23BD
:104CE000FB1804221A700DE01723FB181B78082B01
:104CF00004D01723FB181B78092B03D10C23FB18B6
:104D000008221A700C23FB1800225A701723FB1874
:104D10007A68927C1A701723FB181B78DB09DBB2C8
:104D20001A1C0123134003D00C23FB1801225A70D4
:104D30001723FB181B789B09DBB21A1C01231340B5
:104D400003D00C23FB1802225A701023FB180C22EC
:104D5000BA1812681A601023FA1800231178FF207D
:104D60000140FF2083430B435178FF20014009029B
:104D7000094803400B439178FF200140090407488C
:104D800003400B43D27812061B021B0A1343181C64
:104D9000BD4606B080BDC046FF00FFFFFFFF00FF1D
:104DA00080B586B000AF78601723FB187A68127C54
:104DB0001A701723FB181B78032B09D91723FB182C
:104DC0001B780B2B04D01723FB181B780D2B04D159
:104DD0000C23FB1800221A7012E01723FB181B7813
:104DE0000E2B04D01723FB181B780F2B04D10C2398
:104DF000FB180E221A7003E00C23FB1804221A7011
:104E00000C23FB1800225A700C23FB180022DA70C6
:104E10001723FB187A68927C1A701723FB181B78EB
:104E2000DB09DBB21A1C0123134007D00C23FB184B
:104E300001225A700C23FB180122DA701723FB1889
:104E40001B78DB08DBB21A1C0123134003D00C23B0
:104E5000FB1802225A701723FB181B789B08DBB241
:104E60001A1C0123134003D00C23FB1803225A7091
:104E70001723FB181B785B08DBB21A1C01231340B5
:104E800003D00C23FB1804225A701723FB181B783D
:104E90000122134003D00C23FB1805225A70102363
:104EA000FB180C22BA1812681A601023FA18002393
:104EB0001178FF200140FF2083430B435178FF20EE
:104EC00001400902094803400B439178FF2001404B
:104ED0000904074803400B43D27812061B021B0A41
:104EE0001343181CBD4606B080BDC046FF00FFFF3F
:104EF000FFFF00FF80B586B000AF78601723FB1876
:104F00007A68127C1A701723FB181B78032B04D8BD
:104F10000C23FB1800221A700DE01723FB181B78D6
:104F2000042B04D01723FB181B78052B03D10C236B
:104F3000FB1804221A700C23FB1800225A700C2351
:104F4000FB180022DA701723FB187A68927C1A701B
:104F50001723FB181B78DB09DBB21A1C0123134053
:104F600003D00C23FB1801225A701723FB181B785F
:104F70009B09DBB21A1C0123134003D00C23FB183E
:104F800002225A701023FB180C22BA1812681A60F9
:104F90001023FA1800231178FF200140FF208343DB
:104FA0000B435178FF2001400902094803400B439D
:104FB0009178FF2001400904064803400B43D27852
:104FC00012061B021B0A1343181CBD4606B080BD07
:104FD000FF00FFFFFFFF00FF80B586B000AF7860E5
:104FE0001723FB187A68127C1A701723FB181B789A
:104FF000032B04D80C23FB1800221A700DE0172392
:10500000FB181B78042B04D01723FB181B78052BE7
:1050100003D10C23FB1804221A700C23FB18002266
:105020005A700C23FB180022DA701723FB187A68D9
:10503000927C1A701723FB181B78DB09DBB21A1C51
:105040000123134007D00C23FB1801225A700C23B4
:10505000FB180122DA701723FB181B789B09DBB2BF
:105060001A1C0123134007D00C23FB1802225A708C
:105070000C23FB180122DA701723FB181B785B093D
:10508000DBB21A1C0123134007D00C23FB180322A8
:105090005A700C23FB180122DA701723FB181B78B7
:1050A0009B08DBB21A1C0123134007D00C23FB180A
:1050B00004225A700C23FB180122DA701023FB180B
:1050C0000C22BA1812681A601023FA1800231178FB
:1050D000FF200140FF2083430B435178FF20014014
:1050E0000902094803400B439178FF20014009045D
:1050F000064803400B43D27812061B021B0A1343D7
:10510000181CBD4606B080BDFF00FFFFFFFF00FF7B
:1051100080B584B000AF786039603B681B7C1B02AF
:105120009AB23B685B7C9BB213439BB29AB2082352
:10513000FB181A803B689B7C1B029AB23B68DB7CA5
:105140009BB213439BB29AB20823FB185A803B6868
:105150001B7D1B029AB23B685B7D9BB213439BB2E3
:105160009AB20823FB189A803B689B7D1B029AB277
:105170003B68DB7D9BB213439BB29AB20823FB18BA
:10518000DA807A680823FB18111C1A1C0823081CF3
:10519000111C1A1C02F0E2FD7868BD4604B080BD07
:1051A00080B584B000AF786039603B681B7C1B021F
:1051B0009AB23B685B7C9BB213439AB20823FB18FC
:1051C0001A803B689B7C1B029AB23B68DB7C9BB2DB
:1051D00013439AB20823FB185A803B681B7D1B02BD
:1051E0009AB23B685B7D9BB213439AB20823FB18CB
:1051F0009A803B689B7D1B029AB23B68DB7D9BB229
:1052000013439AB20823FB18DA807A680823FB1844
:10521000111C1A1C0823081C111C1A1C02F09EFDEC
:105220007868BD4604B080BD80B584B000AF7860BA
:1052300039603B681B7C1B029AB23B685B7C9BB26B
:1052400013439BB29AB20823FB181A803B689B7CDD
:105250001B029AB23B68DB7C9BB213439BB29AB2AF
:105260000823FB185A803B681B7D1B029AB23B68DF
:105270005B7D9BB213439BB29AB20823FB189A80C2
:105280003B689B7D1B029AB23B68DB7D9BB213435C
:105290009BB29AB20823FB18DA807A680823FB18BD
:1052A000111C1A1C0823081C111C1A1C02F056FDA4
:1052B0007868BD4604B080BD80B584B000AF78602A
:1052C0007B681B7C1B029AB27B685B7C9BB213439E
:1052D0009BB29AB20823FB181A807B689B7C1B0246
:1052E0009AB27B68DB7C9BB213439BB29AB20823D1
:1052F000FB185A800C23FB180822BA1812681A608F
:105300000C23FA18002311880904090C1B0C1B0438
:105310000B43528812041B041B0C1343181CBD467C
:1053200004B080BD80B582B000AF021CFB1D1A70B6
:10533000FB1D1B787F2B09D8064BFA1D1278111C18
:105340001F220A40012191400A1C1A60BD4602B08A
:1053500080BDC04600E100E0B0B582B000AF021CE5
:105360003960FB1D1A70FB1D1B787F2B27D82D4C35
:10537000FB1D1B785BB29B082A49FA1D127852B2BA
:105380009208C03292005258F91D0978081C032176
:105390000140C900081CFF218140C94311403A68FF
:1053A0009201FF200240F81D0078051C03202840D0
:1053B000C00082400A43C0339B001A512EE01A4CB1
:1053C000FB1D1B781A1C0F231340083B9908164A33
:1053D000FB1D1B78181C0F230340083B9B0806335A
:1053E0009B00D3185B68FA1D1278101C0322024040
:1053F000D200101CFF228240D2431A403B689B011E
:10540000FF200340F81D0078051C03202840C00041
:1054100083401A438B1D9B00E3185A60BD4602B0BF
:10542000B0BDC04600E100E000ED00E080B582B014
:1054300000AF78607B68DB68802252001A437B688B
:10544000DA60BD4602B080BD80B582B000AF786042
:105450000A1CFB1C1A707B68DA68FB1C1B78012194
:1054600099400B1C1A437B68DA60BD4602B080BDD0
:1054700080B582B000AF78607B680122DA60BD46FB
:1054800002B080BD80B582B000AF78600A1CBB1C42
:105490001A80BB1C1A887B685A63BD4602B080BD67
:1054A00080B582B000AF78600A1CBB1C1A80BB1CA0
:1054B0001A887B68DA63BD4602B080BD80B582B0D1
:1054C00000AF786039607B683A681A61BD4602B007
:1054D00080BDC04680B582B000AF78600A1CFB1C5E
:1054E0001A707B68A4229A58FB1C1B7801219940F2
:1054F0000B1C1A437B68A4215A50BD4602B080BDE4
:1055000080B500AF394B181C0021FCF77BFC374BF2
:10551000181CFFF78BFF354B181C0021FCF796FC7D
:10552000334A344B101C191CFCF7AAFC324A334B8B
:10553000101C191CFCF7A4FC2D4A314B101C191C23
:10554000FFF7AEFF2A4A2F4B101C191CFFF79AFFDA
:10555000294A2D4B101C191CFFF7A2FF264A2B4B82
:10556000101C191CFFF78EFF204B181C0521FFF79C
:10557000A5FF1E4B181C5021FFF7A0FF1C4B181C49
:105580000021FFF7A7FF1C4B181C0021FFF7A2FF0B
:10559000174B181C00210222FCF7A6FC164B181C06
:1055A00000210322FCF7A0FC17200321FFF7D4FE03
:1055B0001720FFF7B7FE18200921FFF7CDFE1820AE
:1055C000FFF7B0FE094B181C0021FFF73DFF074B0A
:1055D000181C0121FFF738FF054B181CFFF748FF87
:1055E000054B181CFFF744FFBD4680BD0000044872
:1055F00000010448780600200002044880060020CC
:10560000DC050000B80B00004F1200009F240000D2
:1056100080B586B000AF78600A1CFB1C1A70274B5F
:105620001B7801225340DBB2002B01D000F04AF876
:105630001623FB1800221A807B683B613B69002B14
:1056400035D00F23FB1800221A7029E03B691A7825
:105650000C23FB181A800A23FB181622B9180C22F7
:10566000BA18098812884A401A801623FB181B882A
:105670001B0A99B20A23FB181B88FF221A40104B01
:105680005200D25A1623FB184A401A803B69013354
:105690003B610F23FB181A780F23FB1801321A7095
:1056A0000F23FA18FB1C12781B789A42CED31623CC
:1056B000FB181B88181CBD4606B080BD30080020B2
:1056C0003408002080B582B000AFBB1D00221A80D4
:1056D0003CE0BB1C00221A803B1CBA1D12881A80B9
:1056E0003B1D00221A8021E0BA1C3B1C12881B883B
:1056F00053409BB21A1C0123134008D0BB1C1B88CB
:105700005B089AB2BB1C16494A401A8004E0BB1CD5
:10571000BA1C128852081A803B1C3A1C1288520884
:105720001A803B1D1A883B1D01321A803B1D1B88C5
:10573000072BD9D9BB1D1A880A4B5200B91C0988FE
:10574000D152BB1D1A88BB1D01321A80BB1D1B889C
:10575000FF2BBED9044B01221A70BD4602B080BD9A
:1057600001A0FFFF340800203008002080B582B07F
:1057700000AF78603960264B9B683A6852889A1867
:10578000234B9A60224B5B683A6812889A18204B28
:105790005A601F4BDB683A6892889A181C4BDA6093
:1057A0001B4B1B693A68D2889A18194B1A61194B1E
:1057B0001B781F2B23D1164B5B685A097B685A60F4
:1057C000134BDB685A097B68DA60114B9B685A09F6
:1057D0007B689A600E4B1B695A097B681A610C4BF7
:1057E00000229A600A4B00225A60094B0022DA60BC
:1057F000074B00221A61074B00221A7005E0054B87
:105800001B780133DAB2034B1A70BD4602B080BD7B
:10581000340A0020480A002080B582B000AF021C84
:10582000FB1D1A70FB1D1B787F2B09D8064BFA1D38
:105830001278111C1F220A40012191400A1C1A6093
:10584000BD4602B080BDC04600E100E0B0B582B008
:1058500000AF021C3960FB1D1A70FB1D1B787F2BEB
:1058600027D82D4CFB1D1B785BB29B082A49FA1DDB
:10587000127852B29208C03292005258F91D09783B
:10588000081C03210140C900081CFF218140C943B5
:1058900011403A689201FF200240F81D0078051C73
:1058A00003202840C00082400A43C0339B001A51A5
:1058B0002EE01A4CFB1D1B781A1C0F231340083BCB
:1058C0009908164AFB1D1B78181C0F230340083B40
:1058D0009B0806339B00D3185B68FA1D1278101CD6
:1058E00003220240D200101CFF228240D2431A4001
:1058F0003B689B01FF200340F81D0078051C032036
:105900002840C00083401A438B1D9B00E3185A6057
:10591000BD4602B0B0BDC04600E100E000ED00E0D1
:1059200080B582B000AF7860081C111CFB1C021C03
:105930001A70BB1C0A1C1A70FB1C1878FB1C1B7805
:105940007A6806339B00D3185B68072293431A1CBE
:10595000BB1C1B781A437968831D9B00CB185A60C7
:10596000BD4602B080BDC04680B582B000AF786051
:105970000A1CFB1C1A707B681B6C0F2293431A1CB9
:10598000FB1C1B781A437B681A64BD4602B080BDBD
:1059900080B584B000AFF8607A600B23FB180A1C56
:1059A0001A700B23FB181B787A689A40FB685A60C0
:1059B000BD4604B080BDC04680B582B000AF7860FF
:1059C0000A1CFB1C1A70FB1C1B7801229A407B6886
:1059D0005A60BD4602B080BD80B582B000AF78602D
:1059E0007B68181C0421FFF7BFFFBD4602B080BDD5
:1059F00080B582B000AF7860081C111CFB1C021C33
:105A00001A70BB1C0A1C1A70FB1C1878FB1C1B7834
:105A10007A6806339B00D3185B6850229343402278
:105A20001A437968831D9B00CB185A607968FB1C68
:105A30001A78BB1C1B78081C111C1A1CFFF770FF7E
:105A4000BD4602B080BDC04680B582B000AF786070
:105A50007B689B6C181CBD4602B080BD80B582B0CF
:105A600000AF786039607B68DA6C3B681A437B680A
:105A7000DA64BD4602B080BD80B500AF044A054B74
:105A8000101C02211A1CFBF7B1FBBD4680BDC046AD
:105A9000000204408806002080B500AF114A124B76
:105AA000101C0A211A1CFBF7A1FB104A104B101CFA
:105AB00002211A1CFCF764FA0C4A0E4B101C02213E
:105AC0001A1CFCF78BFA0C4B0B20191CFBF78AFCF9
:105AD0000B200421FFF7BAFE0B20FFF79DFEBD4609
:105AE00080BDC04600020440580A00200006014064
:105AF000B4060020BC060020020B000080B500AFF9
:105B0000144A154B101C0B211A1CFBF76FFB114A92
:105B1000114B101C0C211A1CFBF768FB0D4A0E4B95
:105B2000101C0D211A1CFBF761FB0A4B181C0B21E2
:105B30000122FFF72DFF074B181C0C210122FFF754
:105B400027FF044B181C0D210122FFF721FFBD4642
:105B500080BDC046000204409006002080B500AF22
:105B6000124A134B101C08211A1CFBF73FFB0F4A6B
:105B70000F4B101C09211A1CFBF738FB0B4A0C4B6E
:105B8000101C0A211A1CFBF731FB084A084B101C99
:105B90000B211A1CFBF72AFB044A80235B02101C12
:105BA0000B211A1CFFF7F4FEBD4680BD0004044023
:105BB0009806002080B500AF0E4A0F4B101C022142
:105BC0001A1CFBF713FB0B4A0B4B101C03211A1C6E
:105BD000FBF70CFB074A084B101C04211A1CFBF7AF
:105BE00005FB044A044B101C05211A1CFBF7FEFAA6
:105BF000BD4680BD00040440500A002080B500AFBF
:105C0000234A244B101C02211A1CFBF7EFFA224AEC
:105C1000224B101C02211A1CFCF7B2F91E4A204B21
:105C2000101C03211A1CFCF7D9F91E4B0620191C65
:105C3000FBF7D8FB06200821FFF708FE0620FFF738
:105C4000EBFD194A194B101C191CFCF7FDF9164BFA
:105C5000181C00210022FFF7CBFE134B181C01215A
:105C60000022FFF7C5FE124A124B101C00211A1C1D
:105C7000FBF7BCFA0E4A104B101C01211A1CFBF753
:105C8000B5FA094B181CFFF7A7FEBD4680BDC046FC
:105C900000030440580A002030060140A8060020F6
:105CA000B00600200106000000420048A0060020C7
:105CB00000000440C0060020C806002080B582B065
:105CC00000AF021CFB1D1A70BB1D0A1C1A70FB1DC5
:105CD0001B78012B18D0022B2AD0002B00D03BE0E0
:105CE000BB1D1B78002B08D01D4A80235B02101CB3
:105CF0000B211A1CFFF74CFE2EE0194B181C0B2130
:105D00000122FFF745FE27E0BB1D1B78002B08D0C2
:105D1000134A80235B02101C0C211A1CFFF738FE6B
:105D20001AE00F4B181C0C210122FFF731FE13E083
:105D3000BB1D1B78002B08D0094A80235B02101C76
:105D40000D211A1CFFF724FE05E0054B181C0D2140
:105D50000122FFF71DFEC046BD4602B080BDC04611
:105D60000002044090B585B000AF764B181CDE21D0
:105D70000022FCF707FA0E23FB1800221A8006E027
:105D80000E23FB181A880E23FB1801321A800E23EB
:105D9000FB181A88F423FF339A42F1D9694A802309
:105DA0009B00101C191CFFF759FE664B181C0021A4
:105DB000FCF792FA0C23FB1800221A8006E00C2351
:105DC000FB181A880C23FB1801321A800C23FB18CD
:105DD0001A88F423FF339A42F1D95A4A80239B0050
:105DE000101C191CFFF73AFE564B181CDE2101222D
:105DF000FCF708FA0A23FB1800221A8006E00A239F
:105E0000FB181A880A23FB1801321A800A23FB1890
:105E10001A88F423FF339A42F1D94A4A80239B001F
:105E2000101C191CFFF71AFE464B181CFCF7ACFAA5
:105E30000823FB1800221A8006E00823FB181A88A2
:105E40000823FB1801321A800823FB181A88F42350
:105E5000FF339A42F1D93B4AC0231B02101C191C84
:105E6000FFF7FCFD7C1C374B181CFCF7B7FA031C32
:105E70002370344B181CFCF705FA7B1C7A1C127833
:105E8000802149420A431A702E4B181CDE21002241
:105E9000FCF778F9BB1D00221A8004E0BB1D1A88AC
:105EA000BB1D01321A80BB1D1A88F423FF339A42AE
:105EB000F4D9244A80239B00101C191CFFF7CEFD47
:105EC000204B181C0021FCF707FA3B1D00221A800A
:105ED00004E03B1D1A883B1D01321A803B1D1A88C5
:105EE000F423FF339A42F4D9164A80239B00101CF6
:105EF000191CFFF7B3FD134A7B1C1B78101C191CDF
:105F0000FCF7EAF9BB1C00221A8004E0BB1C1A88CB
:105F1000BB1C01321A80BB1C1A88F423FF339A423F
:105F2000F4D9084A80239B00101C191CFFF796FD2A
:105F3000044B181CFCF7A6F97B1C1B78181CBD46EB
:105F400005B090BD0042004880B586B000AF3B1D53
:105F50001860934B181CDE210022FCF713F916235E
:105F6000FB1800221A8006E01623FB181A88162355
:105F7000FB1801321A801623FB181A88F423FF330A
:105F80009A42F1D9864A80239B00101C191CFFF706
:105F900065FD834B181C0021FCF79EF93B1D9B7887
:105FA000181C0A21FCF762FA0B1CDAB27D4B1A703E
:105FB0003B1D9B78181C0A21FCF730FA031CDAB24F
:105FC000794B1A70784B1B781B01DAB2754B1B7832
:105FD000DBB2191C0F230B40DBB21343DBB2DAB286
:105FE0003B1D9A70C0466E4B181CFFF72DFD021C1E
:105FF00080239B001340F6D01423FB1800221A8044
:1060000006E01423FB181A881423FB1801321A80A7
:106010001423FB181A88F423FF339A42F1D9604AFB
:1060200080239B00101C191CFFF718FD3B1D9B785B
:10603000802252421343DBB2594A101C191CFCF750
:106040004BF93B1D5B78181C0A21FCF70FFA0B1C5F
:10605000DAB2544B1A703B1D5B78181C0A21FCF70E
:10606000DDF9031CDAB2504B1A704F4B1B781B0141
:10607000DAB24C4B1B78DBB2191C0F230B40DBB29E
:106080001343DBB2DAB23B1D5A701223FB18002215
:106090001A8006E01223FB181A881223FB1801321B
:1060A0001A801223FB181A88F423FF339A42F1D97D
:1060B0003B4A80239B00101C191CFFF7CFFC3B1DA3
:1060C0005B78374A101C191CFCF706F93B1D1B783E
:1060D000181C0A21FCF7CAF90B1CDAB2314B1A70F2
:1060E0003B1D1B78181C0A21FCF798F9031CDAB237
:1060F0002D4B1A702C4B1B781B01DAB2294B1B78E5
:10610000DBB2191C0F230B40DBB21343DBB2DAB254
:106110003B1D1A701023FB1800221A8006E0102382
:10612000FB181A881023FB1801321A801023FB1861
:106130001A88F423FF339A42F1D9194A80239B002D
:10614000101C191CFFF78AFC3B1D1B78402293434F
:10615000DBB2134A101C191CFCF7BEF80E23FB1807
:1061600000221A8006E00E23FB181A880E23FB1863
:1061700001321A800E23FB181A88F423FF339A4247
:10618000F1D9074A80239B00101C191CFFF766FCFD
:10619000034B181CFCF776F8BD4606B080BDC04620
:1061A00000420048490A00204A0A002080B586B013
:1061B00000AF3B1D1860914B181CDE210022FBF73D
:1061C000E1FF1623FB1800221A8006E01623FB18B5
:1061D0001A881623FB1801321A801623FB181A8816
:1061E000F423FF339A42F1D9844A80239B00101C88
:1061F000191CFFF733FC814B181C0421FCF76CF8C9
:106200003B1DDB78181C0A21FCF730F90B1CDAB2B5
:106210007B4B1A703B1DDB78181C0A21FCF7FEF83B
:10622000031CDAB2774B1A70764B1B781B01DAB27B
:10623000734B1B78DBB2191C0F230B40DBB21343EB
:10624000DBB2DAB23B1DDA701423FB1800221A808D
:1062500006E01423FB181A881423FB1801321A8055
:106260001423FB181A88F423FF339A42F1D9634AA6
:1062700080239B00101C191CFFF7F0FB3B1DDB78F3
:106280005E4A101C191CFCF727F83B1D9B78181C54
:106290000A21FCF7EBF80B1CDAB2594B1A703B1DC4
:1062A0009B78181C0A21FCF7B9F8031CDAB2554B8D
:1062B0001A70544B1B781B01DAB2514B1B78DBB2BE
:1062C000191C0F230B40DBB21343DBB2DAB23B1DC8
:1062D0009A701223FB1800221A8006E01223FB1882
:1062E0001A881223FB1801321A801223FB181A880D
:1062F000F423FF339A42F1D9404A80239B00101CBB
:10630000191CFFF7ABFB3B1D9B783C4A101C191C6A
:10631000FBF7E2FF3B1D1B88181C0A21FCF7A6F8BF
:106320000B1C9BB2DAB2364B1A703B1D1B88181C33
:106330000A21FCF773F8031C9BB2DAB2314B1A70D6
:10634000304B1B781B019AB22D4B1B789BB2191C4A
:106350000F230B409BB213439BB29AB23B1D1A8092
:10636000C046264B181CFFF76FFB021C80239B00C6
:106370001340F6D01023FB1800221A8006E01023E9
:10638000FB181A881023FB1801321A801023FB18FF
:106390001A88F423FF339A42F1D9184A80239B00CC
:1063A000101C191CFFF75AFB3B1D1B88DBB2134A5C
:1063B000101C191CFBF790FF0E23FB1800221A80FB
:1063C00006E00E23FB181A880E23FB1801321A80F0
:1063D0000E23FB181A88F423FF339A42F1D9074A97
:1063E00080239B00101C191CFFF738FB034B181C63
:1063F000FBF748FFBD4606B080BDC04600420048DE
:106400004B0A00204C0A002080B586B000AFA84B94
:10641000181CDE210022FBF7B5FE1623FB18002214
:106420001A8006E01623FB181A881623FB1801327F
:106430001A801623FB181A88F423FF339A42F1D9E5
:106440009B4A80239B00101C191CFFF707FB984BED
:10645000181C0421FBF740FF1423FB1800221A80AC
:1064600006E01423FB181A881423FB1801321A8043
:106470001423FB181A88F423FF339A42F1D98C4A6B
:1064800080239B00101C191CFFF7E8FA884B181C8E
:10649000DE210122FBF7B6FE1223FB1800221A8030
:1064A00006E01223FB181A881223FB1801321A8007
:1064B0001223FB181A88F423FF339A42F1D97C4A3D
:1064C00080239B00101C191CFFF7C8FA784B181C7E
:1064D000FBF730FF1023FB1800221A8006E0102380
:1064E000FB181A881023FB1801321A801023FB189E
:1064F0001A88F423FF339A42F1D96D4AC0231B0254
:10650000101C191CFFF7AAFA694B181CFBF766FF51
:10651000031C1A1C3B1CDA703B1CDB787F221340E7
:10652000DAB23B1CDA70624B181CFBF703FF0E2338
:10653000FB1800221A8006E00E23FB181A880E238F
:10654000FB1801321A800E23FB181A88F423FF333C
:106550009A42F1D9564AC0231B02101C191CFFF79E
:106560007DFA534B181CFBF739FF031C1A1C3B1C0C
:106570009A703B1C9B781F221340DAB23B1C9A7026
:106580004B4B181CFBF700FF0C23FB1800221A8052
:1065900006E00C23FB181A880C23FB1801321A8022
:1065A0000C23FB181A88F423FF339A42F1D9404A8E
:1065B000C0231B02101C191CFFF750FA3C4B181C7F
:1065C000FBF70CFF031C9AB23B1C1A80384B181CBB
:1065D000FBF758FE3B1CDB781B09DBB20B22BA1819
:1065E000191C8900CB18DB1813703B1CDA780A23BE
:1065F000FB180F210A401A700B23FA180A23FB1804
:1066000012781B78D318DAB23B1CDA703B1C9B78EB
:106610001B09DBB20B22BA18191C8900CB18DB1836
:1066200013703B1C9A780A23FB180F210A401A703A
:106630000B23FA180A23FB1812781B78D318DAB246
:106640003B1C9A703B1C1B881B099BB2DBB20B22C4
:10665000BA18191C8900CB18DB1813703B1C1B8857
:10666000DAB20A23FB180F210A401A700B23FB1819
:106670001B789AB20A23FB181B789BB2D3189AB2E4
:106680003B1C1A803B1D3A1C12681A603A1D0023FD
:1066900011880904090C1B0C1B040B4352881204BB
:1066A0001B041B0C1343181CBD4606B080BDC0461E
:1066B0000042004880B586B000AFB14B181C0B21DA
:1066C000FFF77AF9AF4B181CDE210022FBF75AFDC9
:1066D0001623FB1800221A8006E01623FB181A88DE
:1066E0001623FB1801321A801623FB181A88F4238C
:1066F000FF339A42F1D9A34A80239B00101C191C36
:10670000FFF7ACF99F4B181C0021FBF7E5FD1423A4
:10671000FB1800221A8006E01423FB181A881423A1
:10672000FB1801321A801423FB181A88F423FF3354
:106730009A42F1D9934A80239B00101C191CFFF741
:106740008DF9904B181CDE210122FBF75BFD122313
:10675000FB1800221A8006E01223FB181A88122365
:10676000FB1801321A801223FB181A88F423FF3316
:106770009A42F1D9834A80239B00101C191CFFF711
:106780006DF9804B181CFBF7D5FD1023FB18002278
:106790001A8006E01023FB181A881023FB18013218
:1067A0001A801023FB181A88F423FF339A42F1D978
:1067B000744AC0231B02101C191CFFF74FF9714BC0
:1067C000181CFBF70BFE031C1A1C3B1C9A703B1C8D
:1067D0009B787F221340DAB23B1C9A70694B181CDD
:1067E000FBF7A8FD0E23FB1800221A8006E00E23FB
:1067F000FB181A880E23FB1801321A800E23FB188F
:106800001A88F423FF339A42F1D95E4AC0231B024F
:10681000101C191CFFF722F95A4B181CFBF7DEFD60
:10682000031C1A1C3B1C5A703B1C5B787F221340D4
:10683000DAB23B1C5A70534B181CFBF7A5FD0C2316
:10684000FB1800221A8006E00C23FB181A880C2380
:10685000FB1801321A800C23FB181A88F423FF332B
:106860009A42F1D9474AC0231B02101C191CFFF79A
:10687000F5F8444B181CFBF7B1FD031C1A1C3B1C1C
:106880001A703B1C1B783F221340DAB23B1C1A7073
:106890003C4B181CFBF7F6FC3B1C1B781B09DBB2BE
:1068A0000B22BA18191C8900CB18DB1813703B1C7B
:1068B0001A780A23FB180F210A401A700B23FA18C2
:1068C0000A23FB1812781B78D318DAB23B1C1A7013
:1068D0003B1C5B781B09DBB20B22BA18191C890020
:1068E000CB18DB1813703B1C5A780A23FB180F21B6
:1068F0000A401A700B23FA180A23FB1812781B7827
:10690000D318DAB23B1C5A703B1C9B781B09DBB2D4
:106910000B22BA18191C8900CB18DB1813703B1C0A
:106920009A780A23FB180F210A401A700B23FA18D1
:106930000A23FB1812781B78D318DAB23B1C9A7022
:106940003B1D3A1C1188198092789A703A1D0023D9
:106950001178FF200140FF2083430B435178FF2033
:1069600001400902084803400B439278FF210A4086
:10697000120406490B401343181CBD4606B080BDE7
:106980000002044000420048FF00FFFFFFFF00FF3D
:1069900090B585B000AF774B181CDE210022FBF7C5
:1069A000F1FB0E23FB1800221A8006E00E23FB18D1
:1069B0001A880E23FB1801321A800E23FB181A883E
:1069C000F423FF339A42F1D96A4A80239B00101CBA
:1069D000191CFFF743F8674B181C0321FBF77CFCDD
:1069E0000C23FB1800221A8006E00C23FB181A88DF
:1069F0000C23FB1801321A800C23FB181A88F4238D
:106A0000FF339A42F1D95B4A80239B00101C191C6A
:106A1000FFF724F8574B181CDE210122FBF7F2FB8D
:106A20000A23FB1800221A8006E00A23FB181A88A2
:106A30000A23FB1801321A800A23FB181A88F42350
:106A4000FF339A42F1D94B4A80239B00101C191C3A
:106A5000FFF704F8474B181CFBF796FC0823FB18BC
:106A600000221A8006E00823FB181A880823FB1866
:106A700001321A800823FB181A88F423FF339A4244
:106A8000F1D93C4AC0231B02101C191CFEF7E6FF7B
:106A90007C1C384B181CFBF7A1FC031C2370354BE6
:106AA000181CFBF7EFFB7B1C7A1C127807210A40AD
:106AB0001A707B1C7A1C127808210A431A702D4B1D
:106AC000181CDE210022FBF75DFBBB1D00221A8093
:106AD00004E0BB1D1A88BB1D01321A80BB1D1A8839
